{
  "contractName": "HashStorage",
  "abi": [
    {
      "inputs": [],
      "name": "blockCount",
      "outputs": [
        {
          "internalType": "uint256",
          "name": "",
          "type": "uint256"
        }
      ],
      "stateMutability": "view",
      "type": "function",
      "constant": true
    },
    {
      "inputs": [
        {
          "internalType": "uint256",
          "name": "",
          "type": "uint256"
        }
      ],
      "name": "blocks",
      "outputs": [
        {
          "internalType": "uint256",
          "name": "id",
          "type": "uint256"
        },
        {
          "internalType": "uint256",
          "name": "hashCount",
          "type": "uint256"
        }
      ],
      "stateMutability": "view",
      "type": "function",
      "constant": true
    },
    {
      "inputs": [
        {
          "internalType": "string[]",
          "name": "_hashes",
          "type": "string[]"
        }
      ],
      "name": "storeBlock",
      "outputs": [],
      "stateMutability": "nonpayable",
      "type": "function"
    },
    {
      "inputs": [
        {
          "internalType": "uint256",
          "name": "_id",
          "type": "uint256"
        }
      ],
      "name": "getBlock",
      "outputs": [
        {
          "internalType": "string[50]",
          "name": "",
          "type": "string[50]"
        },
        {
          "internalType": "uint256",
          "name": "",
          "type": "uint256"
        }
      ],
      "stateMutability": "view",
      "type": "function",
      "constant": true
    },
    {
      "inputs": [
        {
          "internalType": "string",
          "name": "_hash",
          "type": "string"
        }
      ],
      "name": "hashExists",
      "outputs": [
        {
          "internalType": "bool",
          "name": "",
          "type": "bool"
        }
      ],
      "stateMutability": "view",
      "type": "function",
      "constant": true
    }
  ],
  "bytecode": "0x608060405234801561001057600080fd5b50610c9d806100206000396000f3fe608060405234801561001057600080fd5b50600436106100575760003560e01c806304c075691461005c57806307225b4d1461008d5780639871e510146100ab578063baa73358146100db578063f25b3f99146100f7575b600080fd5b610076600480360381019061007191906106dc565b610128565b604051610084929190610929565b60405180910390f35b61009561021b565b6040516100a29190610994565b60405180910390f35b6100c560048036038101906100c0919061069b565b610221565b6040516100d29190610959565b60405180910390f35b6100f560048036038101906100f0919061065a565b610327565b005b610111600480360381019061010c91906106dc565b610467565b60405161011f9291906109af565b60405180910390f35b61013061048b565b600080600080858152602001908152602001600020905080600101816033015481603280602002604051908101604052809291906000905b8282101561020b57838201805461017e90610b37565b80601f01602080910402602001604051908101604052809291908181526020018280546101aa90610b37565b80156101f75780601f106101cc576101008083540402835291602001916101f7565b820191906000526020600020905b8154815290600101906020018083116101da57829003601f168201915b505050505081526020019060010190610168565b5050505091509250925050915091565b60015481565b600080600090505b60015481101561031c576000806000838152602001908152602001600020905060005b8160330154811015610307578460405160200161026991906108fb565b604051602081830303815290604052805190602001208260010182603281106102bb577f4e487b7100000000000000000000000000000000000000000000000000000000600052603260045260246000fd5b016040516020016102cc9190610912565b6040516020818303038152906040528051906020012014156102f45760019350505050610322565b80806102ff90610b69565b91505061024c565b5050808061031490610b69565b915050610229565b50600090505b919050565b60328151111561036c576040517f08c379a000000000000000000000000000000000000000000000000000000000815260040161036390610974565b60405180910390fd5b60008060006001548152602001908152602001600020905060015481600001819055508151816033018190555060005b825181101561044a578281815181106103de577f4e487b7100000000000000000000000000000000000000000000000000000000600052603260045260246000fd5b6020026020010151826001018260328110610422577f4e487b7100000000000000000000000000000000000000000000000000000000600052603260045260246000fd5b0190805190602001906104369291906104b3565b50808061044290610b69565b91505061039c565b506001600081548092919061045e90610b69565b91905055505050565b60006020528060005260406000206000915090508060000154908060330154905082565b6040518061064001604052806032905b606081526020019060019003908161049b5790505090565b8280546104bf90610b37565b90600052602060002090601f0160209004810192826104e15760008555610528565b82601f106104fa57805160ff1916838001178555610528565b82800160010185558215610528579182015b8281111561052757825182559160200191906001019061050c565b5b5090506105359190610539565b5090565b5b8082111561055257600081600090555060010161053a565b5090565b600061056961056484610a09565b6109d8565b9050808382526020820190508260005b858110156105a9578135850161058f888261061b565b845260208401935060208301925050600181019050610579565b5050509392505050565b60006105c66105c184610a35565b6109d8565b9050828152602081018484840111156105de57600080fd5b6105e9848285610af5565b509392505050565b600082601f83011261060257600080fd5b8135610612848260208601610556565b91505092915050565b600082601f83011261062c57600080fd5b813561063c8482602086016105b3565b91505092915050565b60008135905061065481610c50565b92915050565b60006020828403121561066c57600080fd5b600082013567ffffffffffffffff81111561068657600080fd5b610692848285016105f1565b91505092915050565b6000602082840312156106ad57600080fd5b600082013567ffffffffffffffff8111156106c757600080fd5b6106d38482850161061b565b91505092915050565b6000602082840312156106ee57600080fd5b60006106fc84828501610645565b91505092915050565b6000610711838361079d565b905092915050565b600061072482610a84565b61072e8185610aa7565b93508360208202850161074085610a65565b8060005b8581101561077c578484038952815161075d8582610705565b945061076883610a9a565b925060208a01995050600181019050610744565b50829750879550505050505092915050565b61079781610adf565b82525050565b60006107a882610a8f565b6107b28185610ab2565b93506107c2818560208601610b04565b6107cb81610c3f565b840191505092915050565b60006107e182610a8f565b6107eb8185610ad4565b93506107fb818560208601610b04565b80840191505092915050565b6000815461081481610b37565b61081e8186610ad4565b94506001821660008114610839576001811461084a5761087d565b60ff1983168652818601935061087d565b61085385610a6f565b60005b8381101561087557815481890152600182019150602081019050610856565b838801955050505b50505092915050565b6000610893602983610ac3565b91507f4120626c6f636b2063616e2073746f72652061206d6178696d756d206f66203560008301527f30206861736865732e00000000000000000000000000000000000000000000006020830152604082019050919050565b6108f581610aeb565b82525050565b600061090782846107d6565b915081905092915050565b600061091e8284610807565b915081905092915050565b600060408201905081810360008301526109438185610719565b905061095260208301846108ec565b9392505050565b600060208201905061096e600083018461078e565b92915050565b6000602082019050818103600083015261098d81610886565b9050919050565b60006020820190506109a960008301846108ec565b92915050565b60006040820190506109c460008301856108ec565b6109d160208301846108ec565b9392505050565b6000604051905081810181811067ffffffffffffffff821117156109ff576109fe610c10565b5b8060405250919050565b600067ffffffffffffffff821115610a2457610a23610c10565b5b602082029050602081019050919050565b600067ffffffffffffffff821115610a5057610a4f610c10565b5b601f19601f8301169050602081019050919050565b6000819050919050565b60008190508160005260206000209050919050565b600060329050919050565b600081519050919050565b6000602082019050919050565b600081905092915050565b600082825260208201905092915050565b600082825260208201905092915050565b600081905092915050565b60008115159050919050565b6000819050919050565b82818337600083830152505050565b60005b83811015610b22578082015181840152602081019050610b07565b83811115610b31576000848401525b50505050565b60006002820490506001821680610b4f57607f821691505b60208210811415610b6357610b62610be1565b5b50919050565b6000610b7482610aeb565b91507fffffffffffffffffffffffffffffffffffffffffffffffffffffffffffffffff821415610ba757610ba6610bb2565b5b600182019050919050565b7f4e487b7100000000000000000000000000000000000000000000000000000000600052601160045260246000fd5b7f4e487b7100000000000000000000000000000000000000000000000000000000600052602260045260246000fd5b7f4e487b7100000000000000000000000000000000000000000000000000000000600052604160045260246000fd5b6000601f19601f8301169050919050565b610c5981610aeb565b8114610c6457600080fd5b5056fea2646970667358221220f48f90ee9407d309fb70d3b52ce4cad7768b3ed9b5273900c8f24183b961fce964736f6c63430008000033",
  "immutableReferences": {},
  "source": "// SPDX-License-Identifier: MIT\npragma solidity ^0.8.0;\n\ncontract HashStorage {\n    struct Block {\n        uint id;\n        string[50] hashes; // Array to store up to 50 hashes\n        uint hashCount;    // Actual number of hashes stored\n    }\n\n    mapping(uint => Block) public blocks;\n    uint public blockCount;\n\n    // Store a block with up to 50 hashes\n    function storeBlock(string[] memory _hashes) public {\n        require(_hashes.length <= 50, \"A block can store a maximum of 50 hashes.\");\n        Block storage newBlock = blocks[blockCount];\n        newBlock.id = blockCount;\n        newBlock.hashCount = _hashes.length;\n\n        for (uint i = 0; i < _hashes.length; i++) {\n            newBlock.hashes[i] = _hashes[i];\n        }\n\n        blockCount++;\n    }\n\n    // Get hashes and their count from a specific block\n    function getBlock(uint _id) public view returns (string[50] memory, uint) {\n        Block storage blockData = blocks[_id];\n        return (blockData.hashes, blockData.hashCount);\n    }\n\n    // Check if a specific hash exists in any block\n    function hashExists(string memory _hash) public view returns (bool) {\n        for (uint i = 0; i < blockCount; i++) {\n            Block storage currentBlock = blocks[i];\n            for (uint j = 0; j < currentBlock.hashCount; j++) {\n                if (keccak256(abi.encodePacked(currentBlock.hashes[j])) == keccak256(abi.encodePacked(_hash))) {\n                    return true;\n                }\n            }\n        }\n        return false;\n    }\n\n    // // Check if multiple hashes exist in the blockchain\n    // function hashesExist(string[] memory _hashes) public view returns (bool[] memory) {\n    //     bool[] memory results = new bool[](_hashes.length);\n    //     for (uint k = 0; k < _hashes.length; k++) {\n    //         results[k] = false;\n    //         for (uint i = 0; i < blockCount; i++) {\n    //             Block storage currentBlock = blocks[i];\n    //             for (uint j = 0; j < currentBlock.hashCount; j++) {\n    //                 if (keccak256(abi.encodePacked(currentBlock.hashes[j])) == keccak256(abi.encodePacked(_hashes[k]))) {\n    //                     results[k] = true;\n    //                     break;\n    //                 }\n    //             }\n    //             if (results[k]) break;\n    //         }\n    //     }\n    //     return results;\n    // }\n}\n",
  "sourcePath": "/Users/peerawichayapholwiset/Desktop/Blockchain/src/test/verhash/blockchain/contracts/HashStorage.sol",
  "compiler": {
    "name": "solc",
    "version": "0.8.0+commit.c7dfd78e.Emscripten.clang"
  },
  "schemaVersion": "3.4.16",
  "updatedAt": "2024-12-27T16:41:29.963Z",
  "networkType": "ethereum",
  "devdoc": {
    "kind": "dev",
    "methods": {},
    "version": 1
  },
  "userdoc": {
    "kind": "user",
    "methods": {},
    "version": 1
  }
}