{
  "contractName": "HashStorage",
  "abi": [
    {
      "inputs": [],
      "name": "blockCount",
      "outputs": [
        {
          "internalType": "uint256",
          "name": "",
          "type": "uint256"
        }
      ],
      "stateMutability": "view",
      "type": "function",
      "constant": true
    },
    {
      "inputs": [
        {
          "internalType": "uint256",
          "name": "",
          "type": "uint256"
        }
      ],
      "name": "blocks",
      "outputs": [
        {
          "internalType": "uint256",
          "name": "id",
          "type": "uint256"
        },
        {
          "internalType": "uint256",
          "name": "hashCount",
          "type": "uint256"
        }
      ],
      "stateMutability": "view",
      "type": "function",
      "constant": true
    },
    {
      "inputs": [
        {
          "internalType": "string[]",
          "name": "_hashes",
          "type": "string[]"
        }
      ],
      "name": "storeBlock",
      "outputs": [],
      "stateMutability": "nonpayable",
      "type": "function"
    },
    {
      "inputs": [
        {
          "internalType": "uint256",
          "name": "_id",
          "type": "uint256"
        }
      ],
      "name": "getBlock",
      "outputs": [
        {
          "internalType": "string[50]",
          "name": "",
          "type": "string[50]"
        },
        {
          "internalType": "uint256",
          "name": "",
          "type": "uint256"
        }
      ],
      "stateMutability": "view",
      "type": "function",
      "constant": true
    }
  ],
  "bytecode": "0x608060405234801561001057600080fd5b506109e7806100206000396000f3fe608060405234801561001057600080fd5b506004361061004c5760003560e01c806304c075691461005157806307225b4d14610082578063baa73358146100a0578063f25b3f99146100bc575b600080fd5b61006b6004803603810190610066919061055a565b6100ed565b6040516100799291906106ba565b60405180910390f35b61008a6101e0565b604051610097919061070a565b60405180910390f35b6100ba60048036038101906100b59190610519565b6101e6565b005b6100d660048036038101906100d1919061055a565b610326565b6040516100e4929190610725565b60405180910390f35b6100f561034a565b600080600080858152602001908152602001600020905080600101816033015481603280602002604051908101604052809291906000905b828210156101d057838201805461014390610881565b80601f016020809104026020016040519081016040528092919081815260200182805461016f90610881565b80156101bc5780601f10610191576101008083540402835291602001916101bc565b820191906000526020600020905b81548152906001019060200180831161019f57829003601f168201915b50505050508152602001906001019061012d565b5050505091509250925050915091565b60015481565b60328151111561022b576040517f08c379a0000000000000000000000000000000000000000000000000000000008152600401610222906106ea565b60405180910390fd5b60008060006001548152602001908152602001600020905060015481600001819055508151816033018190555060005b82518110156103095782818151811061029d577f4e487b7100000000000000000000000000000000000000000000000000000000600052603260045260246000fd5b60200260200101518260010182603281106102e1577f4e487b7100000000000000000000000000000000000000000000000000000000600052603260045260246000fd5b0190805190602001906102f5929190610372565b508080610301906108b3565b91505061025b565b506001600081548092919061031d906108b3565b91905055505050565b60006020528060005260406000206000915090508060000154908060330154905082565b6040518061064001604052806032905b606081526020019060019003908161035a5790505090565b82805461037e90610881565b90600052602060002090601f0160209004810192826103a057600085556103e7565b82601f106103b957805160ff19168380011785556103e7565b828001600101855582156103e7579182015b828111156103e65782518255916020019190600101906103cb565b5b5090506103f491906103f8565b5090565b5b808211156104115760008160009055506001016103f9565b5090565b60006104286104238461077f565b61074e565b9050808382526020820190508260005b85811015610468578135850161044e88826104da565b845260208401935060208301925050600181019050610438565b5050509392505050565b6000610485610480846107ab565b61074e565b90508281526020810184848401111561049d57600080fd5b6104a884828561083f565b509392505050565b600082601f8301126104c157600080fd5b81356104d1848260208601610415565b91505092915050565b600082601f8301126104eb57600080fd5b81356104fb848260208601610472565b91505092915050565b6000813590506105138161099a565b92915050565b60006020828403121561052b57600080fd5b600082013567ffffffffffffffff81111561054557600080fd5b610551848285016104b0565b91505092915050565b60006020828403121561056c57600080fd5b600061057a84828501610504565b91505092915050565b600061058f838361060c565b905092915050565b60006105a2826107e5565b6105ac8185610808565b9350836020820285016105be856107db565b8060005b858110156105fa57848403895281516105db8582610583565b94506105e6836107fb565b925060208a019950506001810190506105c2565b50829750879550505050505092915050565b6000610617826107f0565b6106218185610813565b935061063181856020860161084e565b61063a81610989565b840191505092915050565b6000610652602983610824565b91507f4120626c6f636b2063616e2073746f72652061206d6178696d756d206f66203560008301527f30206861736865732e00000000000000000000000000000000000000000000006020830152604082019050919050565b6106b481610835565b82525050565b600060408201905081810360008301526106d48185610597565b90506106e360208301846106ab565b9392505050565b6000602082019050818103600083015261070381610645565b9050919050565b600060208201905061071f60008301846106ab565b92915050565b600060408201905061073a60008301856106ab565b61074760208301846106ab565b9392505050565b6000604051905081810181811067ffffffffffffffff821117156107755761077461095a565b5b8060405250919050565b600067ffffffffffffffff82111561079a5761079961095a565b5b602082029050602081019050919050565b600067ffffffffffffffff8211156107c6576107c561095a565b5b601f19601f8301169050602081019050919050565b6000819050919050565b600060329050919050565b600081519050919050565b6000602082019050919050565b600081905092915050565b600082825260208201905092915050565b600082825260208201905092915050565b6000819050919050565b82818337600083830152505050565b60005b8381101561086c578082015181840152602081019050610851565b8381111561087b576000848401525b50505050565b6000600282049050600182168061089957607f821691505b602082108114156108ad576108ac61092b565b5b50919050565b60006108be82610835565b91507fffffffffffffffffffffffffffffffffffffffffffffffffffffffffffffffff8214156108f1576108f06108fc565b5b600182019050919050565b7f4e487b7100000000000000000000000000000000000000000000000000000000600052601160045260246000fd5b7f4e487b7100000000000000000000000000000000000000000000000000000000600052602260045260246000fd5b7f4e487b7100000000000000000000000000000000000000000000000000000000600052604160045260246000fd5b6000601f19601f8301169050919050565b6109a381610835565b81146109ae57600080fd5b5056fea2646970667358221220a996860136beeea6abf94bce62119a4f37cc89d87d1b1d32846632f7afcf239664736f6c63430008000033",
  "immutableReferences": {},
  "source": "// SPDX-License-Identifier: MIT\npragma solidity ^0.8.0;\n\ncontract HashStorage {\n    struct Block {\n        uint id;\n        string[50] hashes; // Array to store up to 50 hashes\n        uint hashCount;    // Actual number of hashes stored\n    }\n\n    mapping(uint => Block) public blocks;\n    uint public blockCount;\n\n    // Store a block with up to 50 hashes\n    function storeBlock(string[] memory _hashes) public {\n        require(_hashes.length <= 50, \"A block can store a maximum of 50 hashes.\");\n        Block storage newBlock = blocks[blockCount];\n        newBlock.id = blockCount;\n        newBlock.hashCount = _hashes.length;\n\n        for (uint i = 0; i < _hashes.length; i++) {\n            newBlock.hashes[i] = _hashes[i];\n        }\n\n        blockCount++;\n    }\n\n    // Get hashes and their count from a specific block\n    function getBlock(uint _id) public view returns (string[50] memory, uint) {\n        Block storage blockData = blocks[_id];\n        return (blockData.hashes, blockData.hashCount);\n    }\n}\n",
  "sourcePath": "/Users/peerawichayapholwiset/Desktop/Blockchain/src/test/verhash/blockchain/contracts/HashStorage.sol",
  "compiler": {
    "name": "solc",
    "version": "0.8.0+commit.c7dfd78e.Emscripten.clang"
  },
  "schemaVersion": "3.4.16",
  "updatedAt": "2024-12-26T17:48:33.434Z",
  "networkType": "ethereum",
  "devdoc": {
    "kind": "dev",
    "methods": {},
    "version": 1
  },
  "userdoc": {
    "kind": "user",
    "methods": {},
    "version": 1
  }
}